:100000000C9463000C944D040C948B000C945F03CF
:100010000C945F030C945F030C948B000C94D70337
:100020000C948B000C948B000C948B000C948B0024
:100030000C948B000C948B000C948B000C948B0014
:100040000C94BD020C948B000C942D030C940703AC
:100050000C948B000C9459040C948B000C948B0022
:100060000C948B000C948B0000000008000201002F
:100070000003040700000000000000000000000072
:1000800023002600290000000000240027002A0089
:1000900000000000250028002B00040404040404D0
:1000A0000404020202020202030303030303010227
:1000B00004081020408001020408102001020408F6
:1000C0001020FC043E0911241FBECFEFD8E0DEBF94
:1000D000CDBF11E0A0E0B1E0EEE6F3E102C0059093
:1000E0000D92A233B107D9F722E0A2E3B1E001C03B
:1000F0001D92A436B207E1F710E0C2E6D0E004C0DA
:100100002197FE010E94A409C136D107C9F70E94B8
:10011000E5050C94AA090C940000AF92BF92CF920F
:10012000DF92EF92FF920F931F93CF93DF936C01B7
:100130007B018B01040F151FEB015E01AE18BF0898
:10014000C017D10759F06991D601ED91FC9101904A
:10015000F081E02DC6010995892B79F7C501DF9162
:10016000CF911F910F91FF90EF90DF90CF90BF90B4
:10017000AF900895FC01538D448D252F30E0842FDE
:1001800090E0821B930B541710F0CF9608950197BF
:100190000895FC01918D828D981761F0A28DAE0FAC
:1001A000BF2FB11D5D968C91928D9F5F9F73928F33
:1001B00090E008958FEF9FEF0895FC01918D828D5F
:1001C000981731F0828DE80FF11D858D90E008952C
:1001D0008FEF9FEF0895FC01918D228D892F90E084
:1001E000805C9F4F821B91098F739927089588EA3D
:1001F00091E00E94EB0021E0892B09F420E0822F9E
:10020000089580E090E0892B29F00E94F700811189
:100210000C9400000895FC01A48DA80FB92FB11D06
:10022000A35ABF4F2C91848D90E001968F7399272C
:10023000848FA689B7892C93A089B1898C9183700A
:1002400080648C93938D848D981306C00288F38903
:10025000E02D80818F7D80830895EF92FF920F9330
:100260001F93CF93DF93EC0181E0888F9B8D8C8D62
:1002700098131AC0E889F989808185FF15C09FB756
:10028000F894EE89FF896083E889F9898081837019
:10029000806480839FBF81E090E0DF91CF911F91C8
:1002A0000F91FF90EF900895F62E0B8D10E00F5FE9
:1002B0001F4F0F731127E02E8C8D8E110CC00FB6BF
:1002C00007FCFACFE889F989808185FFF5CFCE0157
:1002D0000E940B01F1CFEB8DEC0FFD2FF11DE35AC6
:1002E000FF4FF0829FB7F8940B8FEA89FB898081DA
:1002F0008062CFCFCF93DF93EC01888D8823B9F054
:10030000AA89BB89E889F9898C9185FD03C0808120
:1003100086FD0DC00FB607FCF7CF8C9185FFF2CF9D
:10032000808185FFEDCFCE010E940B01E9CFDF91E7
:10033000CF91089520917D0130917E0128173907D2
:1003400071F490917B0180917C01981741F0E091CC
:100350007B01F0E0E55CFE4F808190E008958FEF37
:100360009FEF08950895EF92FF920F931F93CF93FD
:10037000DF93DC015C96ED90FC905D97E114F10455
:1003800079F481E090E013969C938E93129790E01D
:1003900080E0DF91CF911F910F91FF90EF90089532
:1003A0005196ED91FC91529750968C915097982FC1
:1003B00090950FB75E962C915E97122F127021FDCB
:1003C0006095F8942081112319F1282B2083E701EF
:1003D0002197F1F728E0462F50E0308160FF1AC0E6
:1003E000382B3083E7012197F1F7BA0175956795AE
:1003F000215089F7112381F08081892380830FBFE9
:100400005C968D919C910197F1F781E090E0C1CFCE
:100410002923DCCF3923E5CF9081892BEFCF2091A1
:100420007D0130917E012817390771F480917C019C
:1004300020917B0190E0805C9F4F821B910960E4DA
:1004400070E00E945A09089590E080E0089520919C
:100450007D0130917E0128173907B9F490917B0115
:1004600080917C01981789F0E0917B01F0E0E55CD8
:10047000FE4F808120917B0130E02F5F3F4F2F7333
:10048000332720937B0190E008958FEF9FEF08952D
:1004900090E080E00895FC0101900020E9F7319799
:1004A000AF01481B590BBC0188EA91E00C948D0008
:1004B0008F929F92AF92BF920F931F93CF93DF9330
:1004C000CDB7DEB7A1970FB6F894DEBF0FBECDBF94
:1004D00019A2423008F44AE08E010F5D1F4F842EAE
:1004E000912CB12CA12CA50194010E946E09E62F3C
:1004F000B901CA01EA30F4F4E05DD801EE938D0150
:10050000232B242B252B79F790E080E0109719F00E
:10051000CD010E944B02A1960FB6F894DEBF0FBE2C
:10052000CDBFDF91CF911F910F91BF90AF909F9062
:100530008F900895E95CE1CFCF92DF92EF92FF9226
:10054000CF93DF936B017C016DE288EA91E00E941A
:100550002D01EC0166277727CB016C197D098E09E7
:100560009F094AE00E9458028C0F9D1FDF91CF9196
:10057000FF90EF90DF90CF9008951F920F920FB6EB
:100580000F9211242F933F938F939F93AF93BF9319
:100590008091A4019091A501A091A601B091A7011D
:1005A0003091A30123E0230F2D3758F50196A11DAB
:1005B000B11D2093A3018093A4019093A501A09362
:1005C000A601B093A70180919F019091A001A091F5
:1005D000A101B091A2010196A11DB11D80939F01BF
:1005E0009093A001A093A101B093A201BF91AF91FC
:1005F0009F918F913F912F910F900FBE0F901F9061
:10060000189526E8230F0296A11DB11DD2CF1F9287
:100610000F920FB60F9211242F933F934F935F9336
:100620006F937F938F939F93AF93BF93EF93FF93BA
:1006300088EA91E00E940B01FF91EF91BF91AF9189
:100640009F918F917F916F915F914F913F912F91EA
:100650000F900FBE0F901F9018951F920F920FB61C
:100660000F9211242F938F939F93EF93FF93E09119
:10067000B801F091B9018081E091BE01F091BF0114
:1006800082FD1BC090818091C1018F5F8F7320918B
:10069000C201821741F0E091C101F0E0E855FE4F40
:1006A000958F8093C101FF91EF919F918F912F9131
:1006B0000F900FBE0F901F9018958081F4CF1F925E
:1006C0000F920FB60F9211242F933F934F935F9386
:1006D0006F937F938F939F93AF93BF93EF93FF930A
:1006E000E0917D01F0917E01309749F0A685B785B4
:1006F0008585968D91FF14C09C918923A1F4FF916B
:10070000EF91BF91AF919F918F917F916F915F9189
:100710004F913F912F910F900FBE0F901F90189502
:100720009C91892361F7A389B4899C9185898095DF
:1007300089238C93868997890197F1F7608D718D54
:10074000A685B785558538E020E0CB010197F1F704
:10075000822F90E095958795282F4C91452309F09D
:100760002068315091F7868D81FD209580917C0124
:1007700090E001968F73992730917B01381799F09B
:10078000A0917C01B0E0A55CBE4F2C9380937C01CE
:10079000828D938D0197F1F7A389B4898C91958906
:1007A000892B8C93ACCF868D8160868FF1CF1F9281
:1007B0000F920FB60F9211242F938F939F938091D6
:1007C0003401813071F480913201909133010196AE
:1007D0009093330180933201813A9F4014F010923C
:1007E00034018091390190913A01892B21F48BB128
:1007F00088668BB92B9A20913501809139019091AF
:100800003A012817190609F45B9820913601809166
:10081000390190913A012817190609F45D98209141
:1008200037018091390190913A012817190609F48E
:100830005E98209138018091390190913A012817F2
:10084000190609F42B988091390190913A0101968B
:10085000811521E0920761F090933A01809339016C
:100860009F918F912F910F900FBE0F901F90189511
:1008700010923A01109239018091890180933501DB
:1008800080918A018093360180918B01809337019A
:1008900080918C0180933801E3CF1F920F920FB6A5
:1008A0000F921124109234010F900FBE0F901F90E1
:1008B00018951F920F920FB60F9211242F933F930A
:1008C0008F939F9380917F01853059F18630C1F1DC
:1008D000843079F4209178003091790090918001F2
:1008E0009F5F953021F0909380018F5F05C010923B
:1008F00080018F5F873079F180937F0180917F0144
:10090000806480937C0080917A00806480937A0078
:100910009F918F913F912F910F900FBE0F901F903D
:1009200018952091780030917900909182019F5F15
:10093000953019F090938201D8CF10928201D9CFCF
:100940002091780030917900909181019F5F9530DE
:1009500021F09093810184E0CFCF10928101C9CF23
:1009600090E0FC01E859FF4F2491FC01E255FF4F54
:100970003491FC01E656FF4FE491EE23C9F02223A7
:1009800039F0233001F1A8F4213019F1223029F196
:10099000F0E0EE0FFF1FE057FF4FA591B4918FB726
:1009A000F894EC91611126C030953E233C938FBFA3
:1009B00008952730A9F02830C9F0243049F78091F4
:1009C00080008F7D03C0809180008F7780938000AE
:1009D000DFCF84B58F7784BDDBCF84B58F7DFBCF30
:1009E0008091B0008F778093B000D2CF8091B0001B
:1009F0008F7DF9CF3E2BDACF0F931F93CF93DF93E9
:100A00001092AB011092AA0188EE93E0A0E0B0E052
:100A10008093AC019093AD01A093AE01B093AF0170
:100A20002CE031E03093A9012093A80125EC30E0BF
:100A30003093B5012093B40124EC30E03093B7013A
:100A40002093B60120EC30E03093B9012093B80137
:100A500021EC30E03093BB012093BA0122EC30E06E
:100A60003093BD012093BC0126EC30E03093BF01F0
:100A70002093BE011092C1011092C2011092C301D5
:100A80001092C401109248021092470280934902CA
:100A900090934A02A0934B02B0934C028EE191E0F6
:100AA000909346028093450210925C0210925B0282
:100AB00010925E0210925D021092600210925F022C
:100AC0001092620210926102609163026E7F6D7FEC
:100AD000609363026695617081E0682787E00E94F9
:100AE000B00445EB50E0FA01649181EA90E0FC012A
:100AF0002491222399F030E0220F331FF901EA57A5
:100B0000FF4FA591B491F901E057FF4F2591349122
:100B10002FB7F8943C91632B6C932FBFFA0144914B
:100B200040935502FC018491E82FF0E0EE0FFF1F87
:100B3000E057FF4F8591949190935702809356020E
:100B400006EB10E0F8012491C2EAD0E0FE018491A6
:100B50008823C9F090E0880F991FFC01EA57FF4FE6
:100B6000A591B491FC01E057FF4F459154913FB7D7
:100B7000F8949C91822F809598239C93FA01908100
:100B8000892380833FBF8091630281FD04C061E0BF
:100B900088E00E94B00488E080935102F80104913B
:100BA00000935202FE01C491EC2FF0E0EE0FFF1F04
:100BB000E458FF4F8591949190935402809353028F
:100BC000DF91CF911F910F910895789484B5826041
:100BD00084BD84B5816084BD85B5826085BD85B5E1
:100BE000816085BD80916E00816080936E0010925F
:100BF00081008091810082608093810080918100DA
:100C0000816080938100809180008160809380006A
:100C10008091B10084608093B1008091B0008160C8
:100C20008093B00080917A00846080937A008091F4
:100C30007A00826080937A0080917A00816080934C
:100C40007A0080917A00806880937A001092C100C7
:100C5000E091B801F091B90182E08083E091B401A4
:100C6000F091B5011082E091B601F091B7018FECDF
:100C700080831092C001E091BC01F091BD0186E03B
:100C80008083E091BA01F091BB0180818061808313
:100C9000E091BA01F091BB01808188608083E0918E
:100CA000BA01F091BB01808180688083E091BA0134
:100CB000F091BB0180818F7D8083579A209810929C
:100CC000600210925F0210925E0210925D0210921A
:100CD0005C0210925B028DE991E090936202809336
:100CE000610290915102963108F047C02DEB30E03F
:100CF00030935C0220935B022BE931E030935E027B
:100D000020935D022CE231E03093600220935F0279
:100D10002091680084E0983048F031E09E3008F47B
:100D200030E081E001C0880F3A95EAF7822B80938A
:100D300068002DE630E0983050F02BE630E09E3031
:100D400030F02CE630E0963110F030E020E03093C7
:100D5000590220935802292F30E0983008F0BCC186
:100D600081E001C0880F9A95EAF780935A0280913A
:100D70006102909162020197F1F780915F02909178
:100D80006002892B49F1E0917D01F0917E0182E0C2
:100D9000E534F80709F1309739F0A389B4899C91BB
:100DA0008589809589238C93809163028E7F8093BF
:100DB000630210927C0110927B0185E492E0909393
:100DC0007E0180937D01E0915802F091590280816B
:100DD00090915A02892B80838AB188668AB9239AB6
:100DE00087B18F6087B9F89482E08093B00091E07A
:100DF0009093B100809370009CE79093B300789437
:100E000094B1966094B9F89490EA9093800092E13E
:100E10009093810020E23EE4309387002093860087
:100E200028EE33E0309389002093880030938B00C4
:100E300020938A007894F89494E090937F0194E44E
:100E400090937C009FEC90937A00789410928001AC
:100E5000549A5298F89480936900E89A7894109282
:100E60008101109282016AE0962E03E010E074E0A6
:100E7000E72EF12CC1E0D0E0E2E0CE2ED12C50E004
:100E8000A52E50E0B52E85E492E00E940F021816C0
:100E90001906B4F485E492E00E94270220918701AC
:100EA000309188012230310509F49DC10CF021C137
:100EB0002115310509F44DC12130310509F459C11D
:100EC00080910001909101018F579048880F991FE0
:100ED00020910201309103012F573048220F331F18
:100EE0008330910508F4BCC10197919581959109D2
:100EF0002330310508F4B7C121503109B901681B0D
:100F0000790B70939E0160939D01820F931F9093C4
:100F10009C0180939B0190939A0180939901709317
:100F2000980160939701272F2095221F2227221FC7
:100F300030E03093960120939501292F221F22271C
:100F4000221F30E03093940120939301892F8095E4
:100F5000881F8827881F90E09093920180939101C9
:100F6000872F881F8827881F90E090939001809397
:100F70008F0180918D0190918E016817790701F1A1
:100F800070938E0160938D01072E000C880B990BD6
:100F900097FF6CC10E949C028CE291E00E944B0280
:100FA00060918F0170919001072E000C880B990BB6
:100FB00097FF60C10E949C028EE291E00E944B026A
:100FC00080919B0190919C0197FF03C09195819521
:100FD00091094091990150919A0157FF03C0519591
:100FE00041955109209197013091980137FF03C035
:100FF00031952195310960919D0170919E0177FF96
:1010000003C07195619571096F3F710519F014F076
:101010006FEF70E070939E0160939D018F3F91058B
:1010200019F014F08FEF90E090939C0180939B0156
:101030004F3F510519F014F04FEF50E050939A01D3
:10104000409399012F3F310519F014F02FEF30E054
:10105000309398012093970120919301223030F42E
:1010600098B19E7F922B98B98093890180919501C8
:10107000823048F420919D0198B1880F9D7F892B83
:1010800088B920938A0180918F01823050F4209199
:10109000970198B1880F880F9B7F892B88B920937F
:1010A0008B0180919101823058F42091990198B17F
:1010B000880F880F880F977F892B88B920938C0120
:1010C000A114B10409F4DFCE0E94F700882309F4CB
:1010D000DACE0E940000D3CE9E3040F42850310971
:1010E00081E001C0880F2A95EAF73FCE2E503109E2
:1010F000F7CF2330310509F48CC02430310509F0D5
:10110000DFCE4091830150918401433051050CF0B2
:1011100097C090ED980F9A3008F051C0209185014A
:1011200030918601929EB001939E700D1124282F5C
:10113000880F330B20533109260F371F3093860158
:10114000209385014F5F5F4F50938401409383014B
:10115000B7CE8A3009F0B4CED0938801C09387010E
:1011600010928601109285011092840110928301E1
:10117000A7CE60918301709184016330710524F5DD
:1011800090ED980F9A30D8F4209185013091860126
:10119000929EA001939E500D1124282F880F330B8F
:1011A00020533109240F351F309386012093850188
:1011B0006F5F7F4F709384016093830181CE1092A3
:1011C0008801109287017CCE8C32C9F7D0928801B9
:1011D000C0928701809185019091860190930101D1
:1011E00080930001BDCF60918301709184016330D1
:1011F000710534F28C3219F710938801009387013E
:101200008091850190918601909303018093020162
:10121000A7CF6091830170918401633071050CF454
:10122000AFCF8C3261F6F0928801E0928701809115
:10123000850190918601909305018093040190CFE0
:101240008A3009F0BCCFD0938801C0938701809188
:10125000850190918601909307018093060180CFCC
:1012600090E080E045CE30E020E048CE4AE00E94A9
:10127000580292CE4AE00E9458029ECE8EE191E042
:10128000909346028093450280917D0190917E016A
:101290008554924071F4E0915802F0915902908186
:1012A00080915A0280958923808310927E0110924A
:1012B0007D01089597FB072E16F4009407D077FD63
:1012C00009D00E94900907FC05D03EF490958195C5
:1012D0009F4F0895709561957F4F0895A1E21A2E52
:1012E000AA1BBB1BFD010DC0AA1FBB1FEE1FFF1FCA
:1012F000A217B307E407F50720F0A21BB30BE40B1A
:10130000F50B661F771F881F991F1A9469F7609560
:101310007095809590959B01AC01BD01CF0108951A
:10132000AA1BBB1B51E107C0AA1FBB1FA617B7070B
:1013300010F0A61BB70B881F991F5A95A9F7809527
:101340009095BC01CD010895EE0FFF1F0590F4911B
:10135000E02D099410E0C2E6D0E004C0FE010E9436
:0E136000A4092196C336D107C9F7F894FFCF30
:10136E007F007F0000000000000000002D018D00B6
:10137E00BA007A01EB00C900DD0000000000B301E5
:10138E008D004802B2010F0227029A012C000D0AAD
:02139E0000004D
:00000001FF
